:100000000C9434000C9451000C9451000C94510049
:100010000C9451000C9451000C9451000C9451001C
:100020000C9451000C9451000C9451000C9451000C
:100030000C9451000C9451000C9451000C945100FC
:100040000C9451000C9451000C9451000C945100EC
:100050000C9451000C9451000C9451000C945100DC
:100060000C9451000C94510011241FBECFEFD8E026
:10007000DEBFCDBF11E0A0E0B1E0EEE8F1E002C0EC
:1000800005900D92A230B107D9F721E0A2E0B1E0CE
:1000900001C01D92A330B207E1F70E9453000C94F7
:1000A000C5000C94000084B1826284B984B18F735E
:1000B00084B9809100018130A1F4809101018832DE
:1000C00031F495B180E2892785B9109201018091C0
:1000D0000201863431F495B182E0892785B9109206
:1000E0000201809100018230A1F4809101018A35E2
:1000F00031F495B180E2892785B910920101809190
:100100000201843131F495B182E0892785B91092DA
:1001100002011E9913C083B11E9902C083B1FCCFA6
:1001200080910001813019F482E080930001809178
:100130000001823019F481E0809300011E9B14C0FD
:100140001F9912C01E9B02C01F9BFCCF8091000113
:10015000813019F482E080930001809100018230A7
:1001600019F481E080930001809101018F5F8093F9
:100170000101809102018F5F809302018FE19EE473
:0E0180000197F1F700C0000094CFF894FFCF74
:02018E0001016D
:00000001FF
